:100000000C949E000C94C6000C94C6000C94B50B86
:100010000C94B50B0C94B50B0C94C6000C94C60054
:100020000C94C6000C94C6000C94C6000C94F90AFB
:100030000C94C6000C94C6000C94C6000C94C60028
:100040000C94AF0A0C94C6000C947D0A0C94570AC9
:100050000C94C6000C94C6000C94C6000C94C60008
:100060000C942D0C0C94C600084AD73B3BCE016E75
:1000700084BCBFFDC12F3D6C74319ABD56833DDAFF
:100080003D00C77F11BED9E4BB4C3E916BAAAABE0E
:10009000000000803F0000000000240027002A002C
:1000A0000000000800020100000304070000000037
:1000B00000000000693263577269746520666169E7
:1000C0006C65643A20004572726F722072656164DB
:1000D000696E672073656E736F7200693263526573
:1000E00061642074696D656F75740069326352656F
:1000F0006164206661696C65643A2000000000005C
:1001000023002600290000000000250028002B0005
:1001100004040404040404040202020202020303AD
:1001200003030303010204081020408001020408B5
:100130001020010204081020670DC81611241FBEEC
:10014000CFEFD8E0DEBFCDBF12E0A0E0B1E0E0E24B
:10015000F5E302C005900D92A031B107D9F724E074
:10016000A0E1B2E001C01D92AF3FB207E1F710E09D
:10017000CDE9D0E004C02197FE010E947D1ACC3960
:10018000D107C9F70E94DE0E0C94831A0C9400006C
:10019000EBEBF3E0A089B18982E08C93A485B5856F
:1001A0001C92A685B78580E18C93108EA489B589B1
:1001B00086E08C93A289B3898C9180618C93A2890B
:1001C000B3898C9188608C93A289B3898C91806863
:1001D0008C930288F389E02D80818F7D8083089540
:1001E00080915C0390915B03891B990B089508959E
:1001F0000895AF92BF92CF92DF92EF92FF920F934A
:100200001F93CF93DF936C017B018B01040F151FAC
:10021000EB015E01AE18BF08C017D10759F0699114
:10022000D601ED91FC910190F081E02DC601099578
:10023000892B79F7C501DF91CF911F910F91FF9025
:10024000EF90DF90CF90BF90AF900895FC01538D59
:10025000448D252F30E0842F90E0821B930B5417A0
:1002600010F0CF96089501970895FC01918D828D2D
:10027000981761F0A28DAE0FBF2FB11D5D968C91C6
:10028000928D9F5F9F73928F90E008958FEF9FEF05
:100290000895FC01918D828D981731F0828DE80FC1
:1002A000F11D858D90E008958FEF9FEF0895FC017B
:1002B000918D228D892F90E0805C9F4F821B910948
:1002C0008F73992708958BEB93E00E94570121E0EB
:1002D000892B09F420E0822F089580E090E0892B9B
:1002E00029F00E94630181110C9400000895FC0123
:1002F000A48DA80FB92FB11DA35ABF4F2C91848D87
:1003000090E001968F739927848FA689B7892C93E3
:10031000A089B1898C91837080648C93938D848D36
:10032000981306C00288F389E02D80818F7D808339
:100330000895EF92FF920F931F93CF93DF93EC01F9
:1003400081E0888F9B8D8C8D98131AC0E889F9897C
:10035000808185FF15C09FB7F894EE89FF8960837F
:10036000E889F98980818370806480839FBF81E000
:1003700090E0DF91CF911F910F91FF90EF90089542
:10038000F62E0B8D10E00F5F1F4F0F731127E02E1D
:100390008C8D8E110CC00FB607FCFACFE889F98955
:1003A000808185FFF5CFCE010E947701F1CFEB8DE3
:1003B000EC0FFD2FF11DE35AFF4FF0829FB7F89429
:1003C0000B8FEA89FB8980818062CFCF0F931F93C7
:1003D000CF93DF938C01D0E0C0E0F801EC0FFD1F5C
:1003E0006491662341F08BEB93E00E949901892B85
:1003F00011F02196F2CFCE01DF91CF911F910F9195
:100400000895CF93DF93EC01888D8823B9F0AA89F2
:10041000BB89E889F9898C9185FD03C0808186FDBF
:100420000DC00FB607FCF7CF8C9185FFF2CF80810E
:1004300085FFEDCFCE010E947701E9CFDF91CF910B
:10044000089590E0FC01E056FF4F2491FC01EC5D23
:10045000FE4F3491FC01E05FFE4FE491EE23C9F0C2
:10046000222339F0233001F1A8F4213019F1223090
:1004700029F1F0E0EE0FFF1FEA5FFE4FA591B49166
:100480008FB7F894EC91611126C030953E233C93D0
:100490008FBF08952730A9F02830C9F0243049F7DC
:1004A000809180008F7D03C0809180008F77809342
:1004B0008000DFCF84B58F7784BDDBCF84B58F7D9F
:1004C000FBCF8091B0008F778093B000D2CF809126
:1004D000B0008F7DF9CF3E2BDACFCF93DF9390E042
:1004E000FC01EC5DFE4F2491805F9E4FFC018491E6
:1004F0008823D1F090E0880F991FFC01EA56FF4F46
:10050000A591B491FC01EA5FFE4FC591D4916111B0
:100510000EC09FB7F8948C91E22FE0958E238C93B8
:100520002881E223E8839FBFDF91CF9108958FB7A1
:10053000F894EC91E22BEC938FBFF6CF3FB7F89491
:100540008091C3029091C402A091C502B091C602ED
:1005500026B5A89B05C02F3F19F00196A11DB11D1E
:100560003FBFBA2FA92F982F8827BC01CD01620F5A
:10057000711D811D911D42E0660F771F881F991F15
:100580004A95D1F708958F929F92AF92BF92CF92E2
:10059000DF92EF92FF924B015C010E949E026B0181
:1005A0007C010E949E026C197D098E099F09683E9C
:1005B000734081059105A8F321E0821A9108A108F2
:1005C000B10888EEC80E83E0D81EE11CF11C81142E
:1005D0009104A104B10429F7FF90EF90DF90CF9030
:1005E000BF90AF909F908F900895DC01EC91EC301C
:1005F00090F511968C91119728E830E0281B31096D
:1006000087FD3395220F331F220F331F62177307A5
:1006100084F012968C9128E532E0281B310987FD81
:100620003395220F331F220F331F621773070CF409
:100630009B0122503109220F331F4FB7F8948E2FA0
:1006400090E0FC01EE0FFF1FE80FF91FE656FD4F8B
:10065000328321834FBF08951F93CF93DF93EC0123
:10066000162F88818C3008F04EC061E0812F0E94E7
:100670006D028881282F30E0F901EE0FFF1FE20F95
:10068000F31FE656FD4F1F736081607C612B608312
:1006900019821A822CE0622F0E94491A829FB001AF
:1006A000112430E020E0AB01420F531FFA01EE0F9E
:1006B000FF1FE40FF51FE656FD4F908196FD16C013
:1006C0002F5F3F4F2C30310571F781110FC0109211
:1006D000800082E080938100109285001092840057
:1006E000B19A80916F00826080936F00E8818E2FB5
:1006F00090E0FC01EE0FFF1FE80FF91FE656FD4FDB
:100700008081806480838881DF91CF911F910895DB
:1007100020919602309197022817390771F4909131
:10072000950280919402981741F0E0919502F0E0D3
:10073000EC5AFD4F808190E008958FEF9FEF089570
:100740000895EF92FF920F931F93CF93DF93DC01F5
:100750005C96ED90FC905D97E114F10479F481E0F2
:1007600090E013969C938E93129790E080E0DF9137
:10077000CF911F910F91FF90EF9008955196ED91B9
:10078000FC91529750968C915097982F90950FB757
:100790005E962C915E97122F127021FD6095F89451
:1007A0002081112319F1282B2083E7012197F1F7EC
:1007B00028E0462F50E0308160FF1AC0382B30838C
:1007C000E7012197F1F7BA0175956795215089F7EF
:1007D000112381F08081892380830FBF5C968D91E6
:1007E0009C910197F1F781E090E0C1CF2923DCCF04
:1007F0003923E5CF9081892BEFCF2091960230915C
:1008000097022817390771F480919402209195027C
:1008100090E0805C9F4F821B910960E470E00E9431
:10082000551A089590E080E0089520919602309145
:10083000970228173907B9F4909195028091940294
:10084000981789F0E0919502F0E0EC5AFD4F808115
:100850002091950230E02F5F3F4F2F733327209375
:10086000950290E008958FEF9FEF08952091310257
:10087000260F3327331F21323105ECF420919103E9
:10088000FC0190E080E0243069F082E00895A091BE
:1008900031022191AC014F5E5D4FA40FB52FB11D08
:1008A0002C930196861798F380913102680F60931C
:1008B000310280E0089581E008951092910381E073
:1008C0008093900310926B0361E082E10E94210209
:1008D00061E083E10E942102E9EBF0E080818E7FFC
:1008E000808380818D7F808388E48093B80085E455
:1008F0008093BC000895CF93DF9391E09093100212
:100900008823B9F0C091B800D091BA008091BC00A2
:100910008A7B8093BC0060E082E10E94210260E05B
:1009200083E10E9421020E945D04D093BA00C0932B
:10093000B800DF91CF9108958F929F92AF92BF92AE
:10094000CF92DF92EF92FF920F931F93CF93DF939B
:10095000D091BA03D13208F0D7C0182FC091B90393
:100960000E949E026B017C018091910381116BC0FA
:1009700082E080939103109390038FEF80938F0315
:1009800010928E03D0938D03A9E9B3E0EDE6F3E076
:1009900080E0D81391C010926C0380916C03CC0F4F
:1009A000C82BC0936C0380916B03813009F088C021
:1009B00010926B030E949E026B017C0180916C037C
:1009C0008093BB008091930390919403A091950331
:1009D000B0919603892B8A2B8B2BA1F00E949E024B
:1009E0000091930310919403209195033091960305
:1009F0006C197D098E099F09061717072807390703
:100A000008F442C08091BC0083FDD8CF85EC809370
:100A1000BC000E949E026B017C0180919103823098
:100A200009F450C080918F038F3F09F46FC080910B
:100A30008F03803209F46CC080918F03803309F4F6
:100A400069C084E026C08091930390919403A091A3
:100A50009503B0919603892B8A2B8B2B09F484CFB5
:100A60000E949E028090930390909403A09095031F
:100A7000B09096036C197D098E099F09861697061A
:100A8000A806B90608F070CF809192030E947B04FB
:100A900085E0109298031092BA0310929703DF91A9
:100AA000CF911F910F91FF90EF90DF90CF90BF906B
:100AB000AF909F908F9008959D9191938F5F69CF94
:100AC00085EEA5CF8091930390919403A091950317
:100AD000B0919603892B8A2B8B2B09F49ECF0E9411
:100AE0009E020091930310919403209195033091FD
:100AF00096036C197D098E099F09061717072807A9
:100B0000390708F08ACFC0CF81E0C3CF80E0C1CFE2
:100B100082E0BFCF83E0BDCFE0915B0380915C03B7
:100B2000E81730F4F0E0E55CFC4F808190E0089538
:100B30008FEF9FEF089590915B0380915C032FEFFF
:100B40003FEF981748F4E92FF0E0E55CFC4F208177
:100B500030E09F5F90935B03C9010895CF92DF92CD
:100B6000EF92FF920F931F93CF93DF937C01CB0102
:100B70008A0120919703222389F0EB016B01C40EB7
:100B8000D51ECC15DD0569F06991D701ED91FC9179
:100B90000190F081E02DC7010995F3CF642F0E94E9
:100BA0003604C801DF91CF911F910F91FF90EF9014
:100BB000DF90CF900895CF93DF931F92CDB7DEB72C
:100BC0006983209197032223F9F02091BA03203200
:100BD00058F021E030E0FC013383228390E080E094
:100BE0000F90DF91CF91089580919803E82FF0E066
:100BF000E756FC4F998190838F5F80939803809391
:100C0000BA0381E090E0ECCF61E0CE0101960E9452
:100C10003604F7CF90E080E008954F925F926F9294
:100C20007F928F929F92AF92BF92CF92DF92EF927C
:100C3000FF920F931F93CF93DF93CDB7DEB76E97DD
:100C40000FB6F894DEBF0FBECDBF9E8F8D8F4D8B3C
:100C50005E8B6F8B788FC901B801AD8DBE8D5096BC
:100C60002D913D914D915C915397298B3A8B4B8BF4
:100C70005C8B0E940617ED8DFE8D648B758B868BC9
:100C8000978BA70196010E947819AD8DBE8D1C9699
:100C90002D913D914D915C911F970E9407176D8793
:100CA0007E878F87988BAD8DBE8D94962D913D91CB
:100CB0004D915C91979729833A834B835C83A7017D
:100CC000960169817A818B819C810E9478194B0100
:100CD0005C01AD8DBE8D5C962D913D914D915C91E9
:100CE0005F972D833E834F83588790962D913D913A
:100CF0004D915C91939729873A874B875C872D812B
:100D00003E814F8158850E94061729853A854B857B
:100D10005C850E940617ED8DFE8D20813181428118
:100D200053810E940717A70196010E947819AD8D83
:100D3000BE8D58962D913D914D915C915B970E948F
:100D400007172B013C01A50194016D817E818F81E4
:100D500098850E9406176D837E838F839887A501EF
:100D6000940169857A858B859C850E940617698721
:100D70007A878B879C87ED8DFE8D24813581468116
:100D80005781C701B6010E94781929813A814B81A8
:100D90005C810E940717698F7A8F8B8F9C8FAD8D36
:100DA000BE8D18962D913D914D915C911B97C3017D
:100DB000B2010E9407176B017C01ED8DFE8DC4AA64
:100DC000D5AAE6AAF7AAAC019B01C301B2010E9411
:100DD000EA174B015C01AD8DBE8D98968D929D9268
:100DE000AD92BC929B97A701960169857A858B8508
:100DF0009C850E94EA176B017C01ED8DFE8DC4A6D7
:100E0000D5A6E6A6F7A62D853E854F8558896D891E
:100E10007E898F89988D0E94061769837A838B83D8
:100E20009C83AD8DBE8DD0966D937D938D939C9359
:100E3000D3979B01AC01C501B4010E9478192D859F
:100E40003E854F8558890E9407176D877E878F875B
:100E5000988BED8DFE8D64877587868797872981AE
:100E60003A814B815C81C701B6010E9478192989BA
:100E70003A894B895C890E940717AD8DBE8D5096CB
:100E80006D937D938D939C935397A5019401C3011A
:100E9000B2010E9478199B01AC01C301B2010E940A
:100EA00006172B013C01ED8DFE8D408E518E628E1A
:100EB000738EA50194016D817E818F8198850E943A
:100EC00078199B01AC016D817E818F8198850E948C
:100ED00006174B015C01AD8DBE8D5C968D929D9287
:100EE000AD92BC925F97A3019201C701B6010E9427
:100EF00078199B01AC0169857A858B859C850E9458
:100F00000617ED8DFE8D60A371A382A393A3A501A7
:100F10009401C701B6010E9478199B01AC01698D4B
:100F20007A8D8B8D9C8D0E940617AD8DBE8D94960B
:100F30006D937D938D939C9397976D857E858F851B
:100F400098896E960FB6F894DEBF0FBECDBFDF91C5
:100F5000CF911F910F91FF90EF90DF90CF90BF90B6
:100F6000AF909F908F907F906F905F904F9008957B
:100F7000FC0101900020E9F73197AF01481B590BA4
:100F8000BC018BEB93E00C94F9008F929F92AF928F
:100F9000BF920F931F93CF93DF93CDB7DEB7A19787
:100FA0000FB6F894DEBF0FBECDBF19A2423008F4D1
:100FB0004AE08E010F5D1F4F842E912CB12CA12C85
:100FC000A50194010E94E416E62FB901CA01EA3096
:100FD000F4F4E05DD801EE938D01232B242B252B17
:100FE00079F790E080E0109719F0CD010E94B807E2
:100FF000A1960FB6F894DEBF0FBECDBFDF91CF91A3
:101000001F910F91BF90AF909F908F900895E95CD2
:10101000E1CF8F929F92AF92BF92CF92DF92EF92E9
:10102000FF920F931F93CF93DF93162F91E090932E
:10103000970398E69093B903109298031092BA031D
:10104000682F88E594E00E94DB0580E00E949C0404
:10105000D82F8823E9F08BEE90E00E94E6016D2FF7
:1010600070E090E080E04AE00E94C5078AE391E0EA
:101070000E94B8078D2FDF91CF911F910F91FF90A4
:10108000EF90DF90CF90BF90AF909F908F9008959A
:101090000E949E026B017C0180919103811165C0C9
:1010A00081E080939103809390039FEF90938F034F
:1010B00010928E03910F90938D0380936C03809117
:1010C0006C03806D80936C0380916B03813009F019
:1010D0008AC010926B030E949E026B017C0180917A
:1010E0006C038093BB008091930390919403A09133
:1010F0009503B0919603892B8A2B8B2BA1F00E942C
:101100009E028090930390909403A0909503B090DA
:1011100096036C197D098E099F0986169706A80605
:10112000B90608F443C08091BC0083FDD8CF85EC9C
:101130008093BC000E949E026B017C018091910310
:10114000813009F452C080918E03C12F811710F4B1
:10115000C0918E03ADE6B3E0EBE3F3E080E08C17E3
:1011600051F19D9191938F5FFACF8091930390916C
:101170009403A0919503B0919603892B8A2B8B2B16
:1011800009F48ACF0E949E0280909303909094036A
:10119000A0909503B09096036C197D098E099F0964
:1011A00086169706A806B90608F076CF80919203B6
:1011B0000E947B04C0E010925B03C0935C038DE54A
:1011C000E82E83E0F82E00E080915B03C81779F1E8
:1011D00088E594E00E949B05F70181937F010F5FF2
:1011E0001013F2CF47CF85EEA3CF80919303909158
:1011F0009403A0919503B0919603892B8A2B8B2B96
:1012000009F49CCF0E949E028090930390909403D7
:10121000A0909503B09096036C197D098E099F09E3
:1012200086169706A806B90608F088CFBFCF0E9499
:101230009E026B017C010E949E026C197D098E0941
:101240009F09683E734081059105A8F38BED90E0FE
:101250000E94E6018AE391E00E94B807D5E00ACF38
:10126000CF93DF930E94B807EC018AE391E00E94DC
:10127000B8078C0F9D1FDF91CF9108950C94B8078C
:101280004F925F926F927F928F929F92AF92BF9296
:10129000CF92DF92EF92FF920F931F93CF936B0148
:1012A0007C01742EAC019B010E942F1A882399F0B7
:1012B0008DE391E0CF911F910F91FF90EF90DF9020
:1012C000CF90BF90AF909F908F907F906F905F90E6
:1012D0004F900C94B80746015701E894B7F82FEFE8
:1012E0003FEF4FE75FE7C501B4010E942F1A81115C
:1012F0000DC02FEF3FEF4FE75FE7C501B4010E943C
:10130000E51718161CF481E491E0D4CF2FEF3FEFDE
:101310004FE75FE4C701B6010E946B1918161CF471
:1013200085E491E0C7CF2FEF3FEF4FE75FECC701B8
:10133000B6010E94E51787FDF3CF20E030E0A90158
:10134000C701B6010E94E51710E000E087FF0AC060
:101350006DE28BEB93E00E9499018C01F7FAF09417
:10136000F7F8F094C0E060E070E080E09FE37C1666
:1013700041F020E030E040E251E40E94EA17CF5F04
:10138000F6CFA70196010E9407172B013C010E948E
:1013900063184B015C014AE00E94C5077C01E00E26
:1013A000F11ECC23C1F1C501B4010E9492189B012A
:1013B000AC01C301B2010E9406174B015C016EE251
:1013C0008BEB93E00E949901E80EF91EC15018F1D1
:1013D00020E030E040E251E4C501B4010E947819F8
:1013E0002B013C010E9463184B01B12CA12C4AE057
:1013F000C501B4010E94C507E80EF91EC501B4017C
:101400000E9492189B01AC01C301B2010E94061711
:101410004B015C01DBCFC701CF911F910F91FF9072
:10142000EF90DF90CF90BF90AF909F908F907F9084
:101430006F905F904F90089542E00C94400985EDC5
:101440008093BC008091930390919403A0919503A5
:10145000B09196030796A11DB11D23E0B695A795FF
:10146000979587952A95D1F72091BC0024FD03C05C
:1014700010929103089540919303509194036091C9
:10148000950370919603452B462B472B69F30097E4
:10149000A105B10541F025E32A95F1F70000019778
:1014A000A109B109E1CF809192030C947B041F92B2
:1014B0000F920FB60F9211242F933F934F935F9388
:1014C0006F937F938F939F93AF93BF93EF93FF930C
:1014D0008BEB93E00E947701FF91EF91BF91AF9169
:1014E0009F918F917F916F915F914F913F912F913C
:1014F0000F900FBE0F901F9018951F920F920FB66E
:101500000F9211242F938F939F93EF93FF93E0916A
:10151000CB03F091CC038081E091D103F091D20311
:1015200082FD1BC090818091D4038F5F8F732091C7
:10153000D503821741F0E091D403F0E0E554FC4F6D
:10154000958F8093D403FF91EF919F918F912F916D
:101550000F900FBE0F901F9018958081F4CF1F92AF
:101560000F920FB60F9211242F933F938F939F9357
:10157000AF93BF938091BF029091C002A091C1022E
:10158000B091C2023091BE0223E0230F2D3758F5EF
:101590000196A11DB11D2093BE028093BF029093BE
:1015A000C002A093C102B093C2028091C302909185
:1015B000C402A091C502B091C6020196A11DB11D41
:1015C0008093C3029093C402A093C502B093C60255
:1015D000BF91AF919F918F913F912F910F900FBE2F
:1015E0000F901F90189526E8230F0296A11DB11D9C
:1015F000D2CF1F920F920FB60F9211242F933F93C9
:101600004F935F936F937F938F939F93AF93BF930A
:10161000CF93DF93EF93FF9380919802C09199024B
:10162000D0E087FF24C01092850010928400809142
:1016300098028F5F8093980280919802082E000C88
:10164000990B8C179D0724F4809198028C30C4F17B
:101650008091840090918500049680349C4908F420
:101660007AC08091840090918500049676C0809124
:101670009802082E000C990B8C179D07C4F6E09178
:1016800098028E2FEE0F990BFC01EE0FFF1FE80F53
:10169000F91FE656FD4F808186FFC9CFE091980281
:1016A0008E2FEE0F990BFC01EE0FFF1FE80FF91FB5
:1016B000E656FD4F808160E08F730E942102B7CF14
:1016C0002091840030918500E09198028E2FEE0FDA
:1016D000990BFC01EE0FFF1FE80FF91FE656FD4FB7
:1016E00081819281820F931F90938900809388005B
:1016F000E09198028E2FEE0F990BFC01EE0FFF1F69
:10170000E80FF91FE656FD4F808186FF11C0E0917A
:1017100098028E2FEE0F990BFC01EE0FFF1FE80FC2
:10172000F91FE656FD4F808161E08F730E94210210
:10173000FF91EF91DF91CF91BF91AF919F918F91E9
:101740007F916F915F914F913F912F910F900FBEBD
:101750000F901F90189580E49CE9909389008093E6
:1017600088008FEF80939802E3CF1F920F920FB6FD
:101770000F9211242F933F934F935F936F937F9317
:101780008F939F93AF93BF93EF93FF93E091960254
:10179000F0919702309749F0A685B7858585968D9B
:1017A00091FF14C09C918923A1F4FF91EF91BF9107
:1017B000AF919F918F917F916F915F914F913F91E9
:1017C0002F910F900FBE0F901F9018959C91892319
:1017D00061F7A389B4899C918589809589238C932D
:1017E000868997890197F1F7608D718DA685B785F8
:1017F000558538E020E0CB010197F1F7822F90E08A
:1018000095958795282F4C91452309F020683150F4
:1018100091F7868D81FD20958091940290E001964C
:101820008F73992730919502381799F0A0919402FF
:10183000B0E0AC5ABD4F2C9380939402828D938D6F
:101840000197F1F7A389B4898C919589892B8C93A1
:10185000ACCF868D8160868FF1CF1F920F920FB62D
:101860000F9211242F933F934F935F936F937F9326
:101870008F939F93AF93BF93EF93FF938091B900A2
:10188000887F803609F44AC0F0F5883209F4A7C091
:1018900018F5803109F49BC0B8F4882309F4F9C025
:1018A000883009F494C0FF91EF91BF91AF919F915F
:1018B0008F917F916F915F914F913F912F910F90F9
:1018C0000FBE0F901F901895883109F488C08032A0
:1018D00051F780938F0314C0803409F49DC040F405
:1018E0008033B9F38833F9F680938F0385ECB0C069
:1018F000803509F485C0883509F496C0883499F696
:101900000E941F0AD0CF883909F48CC038F5883777
:1019100029F050F4883611F0803729F683E080935F
:1019200091031092530257C0883809F47BC0803964
:1019300019F0803809F0B7CF80915302803208F057
:1019400071C0E091530281E08E0F80935302809129
:10195000BB00F0E0ED5CFD4F80833DC0803B39F083
:10196000E0F4803A09F479C0883A09F09CCF84E029
:10197000809391031092320210923102E091C902D9
:10198000F091CA0209958091310281110FC081E066
:10199000809331021092110209C0803C09F4A6CF55
:1019A000883C09F4A3CF883B09F07DCFE091320257
:1019B00081E08E0F80933202F0E0EF5EFD4F808178
:1019C0008093BB00909132028091310229C08091B6
:1019D0006C038093BB0085EC8093BC0064CF909136
:1019E0008E0380918D03981758F5E0918E0381E066
:1019F0008E0F80938E03F0E0E359FC4F8081E9CF96
:101A0000E0918E0381E08E0F80938E038091BB0066
:101A1000F0E0E359FC4F808390918E0380918D0319
:101A20009817C8F285E8D8CFE0918E0381E08E0F39
:101A300080938E038091BB00F0E0E359FC4F8083DC
:101A40008091900381115CCF81E080936B0384EAE5
:101A50008093BC001092910326CF85EC8093BC004C
:101A60001092910380915302803230F4E09153023E
:101A7000F0E0ED5CFD4F10826091530270E0E09168
:101A8000C702F091C80283E392E0099510925302D5
:101A90000ACF10928F0334CFFC01909199029C30B1
:101AA00098F481E0890F809399029083892F90E0C8
:101AB000FC01EE0FFF1FE80FF91FE656FD4F88EB04
:101AC0009BE09283818308958FEF80830895CF9266
:101AD000DF92EF92FF921092BE031092BD0328EEA8
:101AE000C22E23E0D22EE12CF12CC092BF03D09263
:101AF000C003E092C103F092C20388E091E09093AA
:101B0000BC038093BB0385EC90E09093C803809363
:101B1000C70384EC90E09093CA038093C90380ECE0
:101B200090E09093CC038093CB0381EC90E0909372
:101B3000CE038093CD0382EC90E09093D00380930A
:101B4000CF0386EC90E09093D2038093D103109260
:101B5000D4031092D5031092D6031092D70310929B
:101B60005B0410925A04C0925C04D0925D04E0922F
:101B70005E04F0925F048AE191E0909359048093AF
:101B800058048CEF94E00E944C0D89EF94E00E9481
:101B90004C0D86EF94E00E944C0D83EF94E00E9480
:101BA0004C0D1092D7041092D604C092D804D09253
:101BB000D904E092DA04F092DB048CE291E0909395
:101BC000D5048093D4041092EB041092EA0410928E
:101BD000ED041092EC041092EF041092EE041092B7
:101BE000F1041092F0046091F2046E7F6D7F6093B7
:101BF000F2046695617081E068278AE00E94210204
:101C000061E08AE00E946D02EEE2F1E0E491E0938F
:101C1000E404EAE1F1E0E491F0E0EE0FFF1FEA5F97
:101C2000FE4F859194919093E6048093E50460E0E3
:101C30008BE00E946D028091F20481FD04C061E09E
:101C40008BE00E9421028BE08093E004EFE2F1E060
:101C5000E491E093E104EBE1F1E0E491F0E0EE0FD8
:101C6000FF1FE450FF4F859194919093E30480937C
:101C7000E2049FE6C92E92E1D92E93E8E92E9AE379
:101C8000F92EC0929C04D0929D04E0929E04F092A2
:101C90009F0446EA5BE964E47BE34093A00450932D
:101CA000A1046093A2047093A3048FE892ECA5EFC3
:101CB000BCE38093A4049093A504A093A604B093DE
:101CC000A7041092A8041092A9041092AA041092DA
:101CD000AB041092AC041092AD041092AE041092BA
:101CE000AF041092B4041092B5041092B60410928E
:101CF000B7041092B8041092B9041092BA0410926A
:101D0000BB041092BC041092BD041092BE04109249
:101D1000BF041092C0041092C1041092C204109229
:101D2000C304C0926404D0926504E0926604F09209
:101D30006704409368045093690460936A04709345
:101D40006B0480936C0490936D04A0936E04B09325
:101D50006F04109270041092710410927204109229
:101D60007304109274041092750410927604109209
:101D7000770410927C0410927D0410927E041092DD
:101D80007F041092800410928104109282041092B9
:101D90008304109284041092850410928604109299
:101DA0008704109288041092890410928A04109279
:101DB0008B04FF90EF90DF90CF900895CF93DF9347
:101DC000CDB7DEB769970FB6F894DEBF0FBECDBFB3
:101DD000789484B5826084BD84B5816084BD85B506
:101DE000826085BD85B5816085BD80916E00816012
:101DF00080936E00109281008091810082608093B8
:101E000081008091810081608093810080918000B9
:101E10008160809380008091B10084608093B100E4
:101E20008091B00081608093B00080917A008460DE
:101E300080937A0080917A00826080937A0080910A
:101E40007A00816080937A0080917A008068809324
:101E50007A001092C1000E94C80010925B03109299
:101E60005C03109298031092BA030E945D0487EFFE
:101E700090E09093CA028093C90288EF90E090931B
:101E8000C8028093C70289E491E00E94300911E002
:101E900008E61983109397030093B90310929803EF
:101EA0001092BA036BE688E594E00E94DB0541E0FE
:101EB00050E0BE016F5F7F4F88E594E00E94AE0561
:101EC00081E00E949C04F82E882381F084EB90E04E
:101ED0000E94E6016F2D70E090E080E04AE00E94F1
:101EE000C5078AE391E00E94B807D3CF61E085E798
:101EF0000E9409088111FACF80915D03883629F08C
:101F000086EC90E00E94E601FFCF64E670E080E09E
:101F100090E00E94C30266E08BE30E9409088111F1
:101F2000FACF60915D0370915E037627672776276D
:101F3000072E000C880B990B0E9494186A837B83F0
:101F40008C839D83609337037093380380933903A8
:101F500090933A0360915F0370916003762767273F
:101F60007627072E000C880B990B0E9494184B01C2
:101F70005C018092330390923403A0923503B092B7
:101F80003603609161037091620376276727762795
:101F9000072E000C880B990B0E9494186B017C0192
:101FA000C0922F03D0923003E0923103F0923203BB
:101FB000AC019B01C501B4010E94861721EE3EE2EF
:101FC00045E652E40E9478192B013C01A5019401D9
:101FD000C501B4010E9478194B015C01A70196016B
:101FE000C701B6010E9478199B01AC01C501B4017B
:101FF0000E9407170E94EB199B01AC016A817B814B
:102000008C819D8190580E94EA170E94B61721EE9C
:102010003EE245E652E40E9478194092A8045092AC
:10202000A9046092AA047092AB0460937004709348
:10203000710480937204909373044092170350923A
:1020400018036092190370921A0360930F03709340
:102050001003809311039093120340921B0350923C
:102060001C0360921D0370921E0360930B03709318
:102070000C0380930D0390930E0366E070E08CEFE9
:1020800094E00E942C0369E070E089EF94E00E94E4
:102090002C0363E070E086EF94E00E942C0365E07F
:1020A00070E083EF94E00E942C0368EE73E08CEF05
:1020B00094E00E94F50268EE73E089EF94E00E94DC
:1020C000F50268EE73E086EF94E00E94F50268EE98
:1020D00073E083EF94E00E94F502C12CD12C7601CD
:1020E000C39468EE73E080E090E00E94C3024AE08F
:1020F000C701B6010E94C5078AE391E00E94B807B4
:102100008FEFC81AD80AE80AF80A9BE0C916D1046A
:10211000E104F10431F768EE73E08CEF94E00E9483
:10212000F50268EE73E089EF94E00E94F50268EE34
:1021300073E086EF94E00E94F50268EE73E083EFAF
:1021400094E00E94F50268EE73E080E090E00E9467
:10215000C3020E94C8000E949E02609323037093F2
:102160002403809325039093260380E0282E80E0AB
:10217000382E84ED94E00E94FD0318161906BCF475
:1021800084ED94E00E941504813609F0BBC580E01F
:1021900090ECAFE8B4E48093000190930101A09328
:1021A0000201B093030181E591E00E9430098BEBBD
:1021B00093E00E94570118161906BCF48BEB93E0CC
:1021C0000E943501813609F0ACC580E090ECAFE8A3
:1021D000B4E48093000190930101A0930201B093B5
:1021E000030181E591E00E9430096EE08BE30E94DB
:1021F00009088111FACF60915D0370915E03762723
:1022000067277627072E000C880B990B0E949418DD
:102210006E837F8388879987609337037093380331
:102220008093390390933A0360915F037091600348
:10223000762767277627072E000C880B990B0E94BC
:1022400094184B015C018092330390923403A09266
:102250003503B09236036091610370916203762773
:1022600067277627072E000C880B990B0E9494187D
:102270006B017C01C0922F03D0923003E0923103B6
:10228000F0923203609165037091660376276727A9
:102290007627072E000C880B990B0E9494186E87E6
:1022A0007F87888B998B60932B0370932C0380938B
:1022B0002D0390932E036091670370916803762736
:1022C00067277627072E000C880B990B0E9494181D
:1022D0002B013C014092270350922803609229036E
:1022E00070922A030E949E020091230310912403FE
:1022F0002091250330912603601B710B820B930BF9
:102300000E94921820E034E244E759E40E94EA1760
:102310006A877B878C879D870E949E026093230338
:10232000709324038093250390932603A7019601BD
:10233000C501B4010E94861721EE3EE245E652E453
:102340000E9478196A837B838C839D83A501940105
:10235000C501B4010E9478194B015C01A7019601E7
:10236000C701B6010E9478199B01AC01C501B401F7
:102370000E9407170E94EB199B01AC016E817F81BF
:102380008885998590580E94EA170E94B61721EE19
:102390003EE245E652E40E9478196A8B7B8B8C8B77
:1023A0009D8B20E030E043E053E46E857F85888993
:1023B00099890E94EA176E837F838887998720E036
:1023C00030E043E053E4C301B2010E94EA174B013D
:1023D0005C0120E030E044EB52EC6A817B818C812F
:1023E0009D810E94E51787FF10C020E030E044EB9C
:1023F00052E460911F03709120038091210390911A
:1024000022030E946B191816ECF020E030E044EB38
:1024100052E46A817B818C819D810E946B19181620
:102420000CF08EC420E030E044EB52EC60911F03CE
:102430007091200380912103909122030E94E5175F
:1024400087FF7EC48A819B81AC81BD818093A80473
:102450009093A904A093AA04B093AB0480931B03A8
:1024600090931C03A0931D03B0931E0380931F033E
:1024700090932003A0932103B0932203809317032A
:1024800090931803A0931903B0931A0340901F036D
:1024900050902003609021037090220320E030E0F0
:1024A000A901C301B2010E946B1918160CF061C496
:1024B00020E030E044EB52E4C301B2010E946B190A
:1024C00018160CF460C4CA84DB84EC84FD84950186
:1024D00084014A895B896C897D8984E694E00E9445
:1024E0000D066B017C01C0921303D0921403E0929D
:1024F0001503F09216032E813F81488559856A8520
:102500007B858C859D850E9478196E8B7F8B888F4B
:10251000998F20911703309118034091190350911E
:102520001A030E9407176E877F87888B998B6093A9
:102530001703709318038093190390931A03A5014E
:1025400094016A857B858C859D850E9478194B0155
:102550005C0120910F0330911003409111035091C1
:1025600012030E9407176E837F8388879987609381
:102570000F03709310038093110390931203209123
:102580001B0330911C0340911D0350911E036E8963
:102590007F89888D998D0E9407172BE734E14EE6DD
:1025A0005FE30E9478196E8B7F8B888F998F29E269
:1025B0003CE54FE85DE36A817B818C819D810E94CF
:1025C00078199B01AC016E897F89888D998D0E9455
:1025D000071760931B0370931C0380931D03909354
:1025E0001E0320910B0330910C0340910D03509179
:1025F0000E03C501B4010E9407172BE734E14EE634
:102600005FE30E9478194B015C0129E23CE54FE849
:102610005DE36A897B898C899D890E9478199B0179
:10262000AC01C501B4010E94071760930B037093BE
:102630000C0380930D0390930E0320E030E044E3FD
:1026400053EC6E857F85888999890E94E51787FDFF
:102650000CC020E030E044E353E46E857F85888938
:1026600099890E946B19181644F4409217035092EE
:1026700018036092190370921A0320E030E044E3DB
:1026800053EC6E817F81888599850E94E51787FDCF
:102690000CC020E030E044E353E46E817F81888504
:1026A00099850E946B19181644F4C0920F03D092BA
:1026B0001003E0921103F09212034092070350922C
:1026C00008036092090370920A03C0920303D09238
:1026D0000403E0920503F0920603A3019201C301F3
:1026E000B2010E9407176A837B838C839D8360936A
:1026F000FB027093FC028093FD029093FE02A701FF
:102700009601C701B6010E9407176E837F838887F1
:1027100099876093FF027093000380930103909365
:10272000020320E030E0A901C301B2010E94781940
:102730002091F3023091F4024091F5025091F6029B
:102740000E9407176E877F87888B998B6093F302AF
:102750007093F4028093F5029093F60220E030E04B
:10276000A901C701B6010E9478192091F7023091A2
:10277000F8024091F9025091FA020E9407176A8B01
:102780007B8B8C8B9D8B6093F7027093F802809308
:10279000F9029093FA022091EF023091F0024091F9
:1027A000F1025091F202C301B2010E9406172A857C
:1027B0003B854C855D850E94EA172AE939E949E1A4
:1027C0005FE30E9478194B015C018092E7029092CE
:1027D000E802A092E902B092EA022091E30230916D
:1027E000E4024091E5025091E602C701B6010E9461
:1027F00006172A853B854C855D850E94EA172AE9E4
:1028000039E949E15FE30E9478196B017C01C092CC
:10281000EB02D092EC02E092ED02F092EE022E85F5
:102820003F85488959896A817B818C819D810E947D
:102830000717A50194010E9407174B015C018092C4
:10284000DB029092DC02A092DD02B092DE022A89C5
:102850003B894C895D896E817F81888599850E943D
:102860000717A70196010E9407176093DF02709374
:10287000E0028093E1029093E20242E0C501B401DC
:102880000E9440098AE391E00E94B8078090DB0231
:102890009090DC02A090DD02B090DE02C0900001BA
:1028A000D0900101E0900201F0900301A701960190
:1028B000C501B4010E9407176A837B838C839D83C3
:1028C0006093D7027093D8028093D9029093DA0272
:1028D000A5019401C701B6010E9406176A877B878C
:1028E0008C879D876093D3027093D4028093D50226
:1028F0009093D6024090DF025090E0026090E10297
:102900007090E202A3019201C701B6010E9407176D
:102910004B015C018092CF029092D002A092D10232
:10292000B092D202A3019201C701B6010E9406171C
:102930006B017C01C092CB02D092CC02E092CD021E
:10294000F092CE0220E030EC4FE854E46A857B85BB
:102950008C859D850E94E51787FF0CC080E090EC78
:10296000AFE8B4E48093D3029093D402A093D5024D
:10297000B093D60220E030EC4AED54E46091D302EB
:102980007091D4028091D5029091D6020E946B1969
:10299000181664F480E090ECAAEDB4E48093D302BE
:1029A0009093D402A093D502B093D60220E030ECED
:1029B0004FE854E46A817B818C819D810E94E517F8
:1029C00087FF0CC080E090ECAFE8B4E48093D702BE
:1029D0009093D802A093D902B093DA0220E030ECB1
:1029E0004AED54E46091D7027091D8028091D902E7
:1029F0009091DA020E946B19181664F480E090EC52
:102A0000AAEDB4E48093D7029093D802A093D902A0
:102A1000B093DA0220E030EC4FE854E4C501B40191
:102A20000E94E51787FF0CC080E090ECAFE8B4E4AB
:102A30008093CF029093D002A093D102B093D202A0
:102A400020E030EC4AED54E46091CF027091D00266
:102A50008091D1029091D2020E946B19181664F4F1
:102A600080E090ECAAEDB4E48093CF029093D00282
:102A7000A093D102B093D20220E030EC4FE854E4AE
:102A8000C701B6010E94E51787FF0CC080E090ECFB
:102A9000AFE8B4E48093CB029093CC02A093CD0234
:102AA000B093CE0220E030EC4AED54E46091CB02CA
:102AB0007091CC028091CD029091CE020E946B1950
:102AC000181664F480E090ECAAEDB4E48093CB0295
:102AD0009093CC02A093CD02B093CE026091D70226
:102AE0007091D8028091D9029091DA020E941C0A5A
:102AF00085E092E00E943E096091D3027091D40279
:102B00008091D5029091D6020E941C0A85E092E045
:102B10000E943E096091CF027091D0028091D10253
:102B20009091D2020E941C0A85E092E00E943E0928
:102B30006091CB027091CC028091CD029091CE0237
:102B40000E941C0A85E092E00E943E098AED91E015
:102B50000E943E096091FB027091FC028091FD028F
:102B60009091FE020E941C0A85E092E00E943E09BC
:102B70008FED91E00E943E096091F3027091F402A2
:102B80008091F5029091F6020E941C0A85E092E085
:102B90000E943E0984EE91E00E943E096091E702A6
:102BA0007091E8028091E9029091EA020E941C0A69
:102BB0008BE391E00E943E0989EE91E00E943E097C
:102BC00060910703709108038091090390910A03B3
:102BD0000E941C0A84EF91E00E943E096091030369
:102BE0007091040380910503909106030E941C0AD2
:102BF00085E092E00E943E0960911F0370912003DE
:102C000080912103909122030E941C0A80E092E0AF
:102C10000E943E0960911303709114038091150383
:102C2000909116030E941C0A87E092E00E943E09E0
:102C30006091D7027091D8028091D9029091DA0206
:102C40000E945C188CEF94E00E94F5026091D30220
:102C50007091D4028091D5029091D6020E945C18A6
:102C600089EF94E00E94F5026091CF027091D0024A
:102C70008091D1029091D2020E945C1886EF94E07C
:102C80000E94F5026091CB027091CC028091CD023E
:102C90009091CE020E945C1883EF94E00E94F502AE
:102CA0008091070390910803A0910903B0910A0352
:102CB0008093EF029093F002A093F102B093F2029E
:102CC0008091030390910403A0910503B091060342
:102CD0008093E3029093E402A093E502B093E602AE
:102CE00064E670E080E090E00E94C30221143104A9
:102CF00009F43FCA0E946301882309F43ACA0E947A
:102D0000000037CA823629F480E090E4A5EBB4E4F1
:102D100042CA833609F04BCA80E090E4AEECB4E4DA
:102D20003ACA823629F480E090E4A5EBB4E451CAB3
:102D3000833609F05ACA80E090E4AEECB4E449CAA4
:102D4000CA84DB84EC84FD840E811F81288539854B
:102D50004A815B816C817D818CE994E00E940D0643
:102D600060931F03709320038093210390932203A9
:102D70008DCB20E030E044EB52ECC301B2010E9465
:102D8000E51787FFA0CBB7FAB094B7F8B0949BCB08
:102D90008CE291E09093D5048093D40480919602C4
:102DA00090919702845D944071F4E091E704F09172
:102DB000E80490818091E9048095892380831092B2
:102DC0009702109296020895A1E21A2EAA1BBB1B2D
:102DD000FD010DC0AA1FBB1FEE1FFF1FA217B307E7
:102DE000E407F50720F0A21BB30BE40BF50B661FFD
:102DF000771F881F991F1A9469F7609570958095C1
:102E000090959B01AC01BD01CF0108955058BB279F
:102E1000AA270E941E170C9431190E94231938F01A
:102E20000E942A1920F039F49F3F19F426F40C94DB
:102E3000F9180EF4E095E7FB0C94F318E92F0E94C3
:102E4000421958F3BA17620773078407950720F0F1
:102E500079F4A6F50C9464190EF4E0950B2EBA2FB4
:102E6000A02D0B01B90190010C01CA01A001112490
:102E7000FF27591B99F0593F50F4503E68F11A163C
:102E8000F040A22F232F342F4427585FF3CF4695CD
:102E900037952795A795F0405395C9F77EF41F16EF
:102EA000BA0B620B730B840BBAF09150A1F0FF0FB9
:102EB000BB1F661F771F881FC2F70EC0BA0F621FA5
:102EC000731F841F48F4879577956795B795F79595
:102ED0009E3F08F0B0CF9395880F08F09927EE0F2A
:102EE0009795879508950E94231960F080E891E0F6
:102EF00009F49EEF0E942A1928F040E851E071F48D
:102F00005EEF0CC00C94F9180C946419E92FE0786A
:102F10000E94421940F3092E052AB1F326173707FC
:102F20004807590738F00E2E07F8E02569F0E0252C
:102F3000E0640AC0EF6307F8009407FADB01B90107
:102F40009D01DC01CA01AD01EF930E9401180E94AE
:102F500031190E94B6175F91552339F02BED3FE0F0
:102F600049E450FD49EC0C9407170895DF93DD27E1
:102F7000B92FBF7740E85FE31616170648075B07CF
:102F800018F4D92F0E9470199F938F937F936F939A
:102F90000E942B1AE8E6F0E00E94FC180E9431190A
:102FA0002F913F914F915F910E948B19DD2351F03A
:102FB0009058A2EA2AED3FE049EC5FE3D0785D2724
:102FC0000E941E17DF910C9431190E94CF1808F44B
:102FD00081E008950E94FE170C9431190E942A196D
:102FE00058F00E94231940F029F45F3F29F00C9417
:102FF000F31851110C9465190C94F9180E94421998
:1030000068F39923B1F3552391F3951B550BBB2717
:10301000AA2762177307840738F09F5F5F4F220F5C
:10302000331F441FAA1FA9F335D00E2E3AF0E0E853
:1030300032D091505040E695001CCAF72BD0FE2F9D
:1030400029D0660F771F881FBB1F26173707480731
:10305000AB07B0E809F0BB0B802DBF01FF279358E9
:103060005F4F3AF09E3F510578F00C94F3180C94A2
:1030700065195F3FE4F3983ED4F38695779567959D
:10308000B795F7959F5FC9F7880F911D969587951E
:1030900097F90895E1E0660F771F881FBB1F62173D
:1030A00073078407BA0720F0621B730B840BBA0BFB
:1030B000EE1F88F7E09508950E9463186894B11197
:1030C0000C94651908950E944A1988F09F5798F04A
:1030D000B92F9927B751B0F0E1F0660F771F881F1D
:1030E000991F1AF0BA95C9F714C0B13091F00E9437
:1030F0006419B1E008950C946419672F782F88271C
:10310000B85F39F0B93FCCF3869577956795B3955D
:10311000D9F73EF490958095709561957F4F8F4FCC
:103120009F4F0895E89409C097FB3EF490958095D1
:10313000709561957F4F8F4F9F4F9923A9F0F92F7D
:1031400096E9BB279395F695879577956795B795FB
:10315000F111F8CFFAF4BB0F11F460FF1BC06F5FE1
:103160007F4F8F4F9F4F16C0882311F096E911C0F3
:10317000772321F09EE8872F762F05C0662371F014
:1031800096E8862F70E060E02AF09A95660F771F28
:10319000881FDAF7880F9695879597F90895990F04
:1031A0000008550FAA0BE0E8FEEF16161706E80711
:1031B000F907C0F012161306E407F50798F0621B32
:1031C000730B840B950B39F40A2661F0232B242B07
:1031D000252B21F408950A2609F4A140A6958FEF26
:1031E000811D811D089597F99F6780E870E060E078
:1031F00008959FEF80EC0895DF93CF931F930F9373
:10320000FF92EF92DF927B018C01689406C0DA2E68
:10321000EF010E948B19FE01E894A591259135914B
:1032200045915591A6F3EF010E941E17FE019701EB
:10323000A801DA9469F7DF90EF90FF900F911F914A
:10324000CF91DF91089500240A94161617061806E8
:103250000906089500240A9412161306140605069A
:103260000895092E0394000C11F4882352F0BB0F2B
:1032700040F4BF2B11F460FF04C06F5F7F4F8F4F8E
:103280009F4F089557FD9058440F551F59F05F3FC9
:1032900071F04795880F97FB991F61F09F3F79F078
:1032A00087950895121613061406551FF2CF4695FA
:1032B000F1DF08C0161617061806991FF1CF86957C
:1032C0007105610508940895E894BB276627772760
:1032D000CB0197F908950E94CF1808F48FEF089555
:1032E0009B01AC0160E070E080E89FE30C94EA177A
:1032F0000E948B190C9431190E94231938F00E94F6
:103300002A1920F0952311F00C94F3180C94F91855
:1033100011240C9465190E94421970F3959FC1F312
:10332000950F50E0551F629FF001729FBB27F00D73
:10333000B11D639FAA27F00DB11DAA1F649F6627C8
:10334000B00DA11D661F829F2227B00DA11D621F17
:10335000739FB00DA11D621F839FA00D611D221FD1
:10336000749F3327A00D611D231F849F600D211DB5
:10337000822F762F6A2F11249F5750409AF0F1F038
:1033800088234AF0EE0FFF1FBB1F661F771F881FA1
:1033900091505040A9F79E3F510580F00C94F318CE
:1033A0000C9465195F3FE4F3983ED4F386957795C6
:1033B0006795B795F795E7959F5FC1F7FE2B880F47
:1033C000911D9695879597F9089519F416F40C9424
:1033D000F9180C94341A0E944A19B8F39923C9F3C6
:1033E000B6F39F57550B87FF0E94421A0024A0E6B0
:1033F00040EA900180585695979528F4805C660FB6
:10340000771F881F20F026173707480730F4621B04
:10341000730B840B202931294A2BA6951794079406
:10342000202531254A2758F7660F771F881F20F07F
:1034300026173707480730F4620B730B840B200DF7
:10344000311D411DA09581F7B901842F9158880F36
:103450009695879508959B01AC010C9478190E946C
:10346000CF18880B990B08959F3F31F0915020F4AD
:10347000879577956795B795880F911D9695879550
:1034800097F9089591505040660F771F881FD2F723
:103490000895991B79E004C0991F961708F0961BB0
:1034A000881F7A95C9F78095089597FB072E16F423
:1034B000009407D077FD09D00E94691A07FC05D057
:1034C0003EF4909581959F4F0895709561957F4F3B
:1034D0000895AA1BBB1B51E107C0AA1FBB1FA6175B
:1034E000B70710F0A61BB70B881F991F5A95A9F7AD
:1034F00080959095BC01CD010895EE0FFF1F0590BA
:10350000F491E02D099410E0CDE9D0E004C0FE0173
:103510000E947D1A2196CE39D107C9F7F894FFCFC2
:1035200000007A44000000009901F9002601010220
:1035300057013501490100000000DB05AE050A0610
:10354000A003F0009B058C0500000000A103F9001A
:103550000A06A003FD03150488030D0A006E616EC0
:1035600000696E66006F76660053746172746564FC
:10357000002A2A2A2A2A2A2A2A2A2A2A2A2A2A2AD5
:103580002A2A2A2A2A2A2A2A2A2A2A2A2A2A2A2A9B
:103590002A2A2A2A2A2A2A2A2A2A2A2A2A2A2A2A8B
:1035A0002A2A2A2A2A2A2A2A2A2A2A2A2A436F6DDA
:1035B0006D616E642052656365697665642A2A2AA6
:1035C0002A2A2A2A2A2A2A2A2A2A2A2A2A2A2A2A5B
:1035D0002A2A2A2A2A2A2A2A2A2A2A2A2A2A2A2A4B
:1035E0002A2A2A2A2A2A2A2A2A2A2A2A2A2A2A2A3B
:1035F0002A2A2A2A2A2A2A2A2A0050313A2000492D
:10360000313A200044313A2000526F6C6C206572D0
:10361000723B20005069746368206572723B200021
:1036200020526F6C6C09002050697463680A0000B6
:00000001FF
